{
  "_format": "hh-sol-artifact-1",
  "contractName": "Arcade",
  "sourceName": "contracts/Arcade.sol",
  "abi": [
    {
      "inputs": [
        {
          "internalType": "address",
          "name": "currency_",
          "type": "address"
        },
        {
          "internalType": "address",
          "name": "gameFactory_",
          "type": "address"
        }
      ],
      "stateMutability": "nonpayable",
      "type": "constructor"
    },
    {
      "anonymous": false,
      "inputs": [
        {
          "indexed": true,
          "internalType": "address",
          "name": "player",
          "type": "address"
        },
        {
          "indexed": true,
          "internalType": "address",
          "name": "game",
          "type": "address"
        },
        {
          "indexed": false,
          "internalType": "uint256",
          "name": "amount",
          "type": "uint256"
        }
      ],
      "name": "Deposited",
      "type": "event"
    },
    {
      "anonymous": false,
      "inputs": [
        {
          "indexed": true,
          "internalType": "address",
          "name": "creator",
          "type": "address"
        },
        {
          "indexed": true,
          "internalType": "address",
          "name": "game",
          "type": "address"
        }
      ],
      "name": "GameRegistered",
      "type": "event"
    },
    {
      "anonymous": false,
      "inputs": [
        {
          "indexed": true,
          "internalType": "address",
          "name": "previousOwner",
          "type": "address"
        },
        {
          "indexed": true,
          "internalType": "address",
          "name": "newOwner",
          "type": "address"
        }
      ],
      "name": "OwnershipTransferred",
      "type": "event"
    },
    {
      "anonymous": false,
      "inputs": [
        {
          "indexed": false,
          "internalType": "address",
          "name": "account",
          "type": "address"
        }
      ],
      "name": "Paused",
      "type": "event"
    },
    {
      "anonymous": false,
      "inputs": [
        {
          "indexed": false,
          "internalType": "address",
          "name": "account",
          "type": "address"
        }
      ],
      "name": "Unpaused",
      "type": "event"
    },
    {
      "inputs": [],
      "name": "currency",
      "outputs": [
        {
          "internalType": "address",
          "name": "",
          "type": "address"
        }
      ],
      "stateMutability": "view",
      "type": "function"
    },
    {
      "inputs": [
        {
          "internalType": "address",
          "name": "game_",
          "type": "address"
        },
        {
          "internalType": "uint256",
          "name": "amount_",
          "type": "uint256"
        }
      ],
      "name": "deposit",
      "outputs": [],
      "stateMutability": "nonpayable",
      "type": "function"
    },
    {
      "inputs": [
        {
          "internalType": "address",
          "name": "",
          "type": "address"
        },
        {
          "internalType": "uint256",
          "name": "",
          "type": "uint256"
        }
      ],
      "name": "gameRegistry",
      "outputs": [
        {
          "internalType": "address",
          "name": "",
          "type": "address"
        }
      ],
      "stateMutability": "view",
      "type": "function"
    },
    {
      "inputs": [
        {
          "internalType": "address",
          "name": "creator_",
          "type": "address"
        }
      ],
      "name": "gamesByCreator",
      "outputs": [
        {
          "internalType": "address[]",
          "name": "",
          "type": "address[]"
        }
      ],
      "stateMutability": "view",
      "type": "function"
    },
    {
      "inputs": [],
      "name": "owner",
      "outputs": [
        {
          "internalType": "address",
          "name": "",
          "type": "address"
        }
      ],
      "stateMutability": "view",
      "type": "function"
    },
    {
      "inputs": [],
      "name": "paused",
      "outputs": [
        {
          "internalType": "bool",
          "name": "",
          "type": "bool"
        }
      ],
      "stateMutability": "view",
      "type": "function"
    },
    {
      "inputs": [
        {
          "internalType": "address",
          "name": "contract_",
          "type": "address"
        }
      ],
      "name": "recoverERC20",
      "outputs": [],
      "stateMutability": "nonpayable",
      "type": "function"
    },
    {
      "inputs": [],
      "name": "register",
      "outputs": [
        {
          "internalType": "address",
          "name": "",
          "type": "address"
        }
      ],
      "stateMutability": "nonpayable",
      "type": "function"
    },
    {
      "inputs": [],
      "name": "renounceOwnership",
      "outputs": [],
      "stateMutability": "nonpayable",
      "type": "function"
    },
    {
      "inputs": [],
      "name": "togglePause",
      "outputs": [],
      "stateMutability": "nonpayable",
      "type": "function"
    },
    {
      "inputs": [
        {
          "internalType": "address",
          "name": "newOwner",
          "type": "address"
        }
      ],
      "name": "transferOwnership",
      "outputs": [],
      "stateMutability": "nonpayable",
      "type": "function"
    }
  ],
  "bytecode": "0x60c06040523480156200001157600080fd5b5060405162004fab38038062004fab8339818101604052810190620000379190620002b1565b620000576200004b620000ff60201b60201c565b6200010760201b60201c565b600180819055506000600260006101000a81548160ff0219169083151502179055508173ffffffffffffffffffffffffffffffffffffffff1660808173ffffffffffffffffffffffffffffffffffffffff1660601b815250508073ffffffffffffffffffffffffffffffffffffffff1660a08173ffffffffffffffffffffffffffffffffffffffff1660601b81525050620000f7620001cb60201b60201c565b5050620003f1565b600033905090565b60008060009054906101000a900473ffffffffffffffffffffffffffffffffffffffff169050816000806101000a81548173ffffffffffffffffffffffffffffffffffffffff021916908373ffffffffffffffffffffffffffffffffffffffff1602179055508173ffffffffffffffffffffffffffffffffffffffff168173ffffffffffffffffffffffffffffffffffffffff167f8be0079c531659141344cd1fd0a4f28419497f9722a3daafe3b4186f6b6457e060405160405180910390a35050565b620001db6200028360201b60201c565b156200021e576040517f08c379a0000000000000000000000000000000000000000000000000000000008152600401620002159062000347565b60405180910390fd5b6001600260006101000a81548160ff0219169083151502179055507f62e78cea01bee320cd4e420270b5ea74000d11b0c9f74754ebdbfc544b05a2586200026a620000ff60201b60201c565b6040516200027991906200032a565b60405180910390a1565b6000600260009054906101000a900460ff16905090565b600081519050620002ab81620003d7565b92915050565b60008060408385031215620002c557600080fd5b6000620002d5858286016200029a565b9250506020620002e8858286016200029a565b9150509250929050565b620002fd816200037a565b82525050565b60006200031260108362000369565b91506200031f82620003ae565b602082019050919050565b6000602082019050620003416000830184620002f2565b92915050565b60006020820190508181036000830152620003628162000303565b9050919050565b600082825260208201905092915050565b600062000387826200038e565b9050919050565b600073ffffffffffffffffffffffffffffffffffffffff82169050919050565b7f5061757361626c653a2070617573656400000000000000000000000000000000600082015250565b620003e2816200037a565b8114620003ee57600080fd5b50565b60805160601c60a05160601c614b79620004326000396000610312015260008181610772015281816108b9015281816109890152610f9c0152614b796000f3fe60806040523480156200001157600080fd5b5060043610620000b85760003560e01c80638da5cb5b116200007b5780638da5cb5b14620001635780639e8c708e1462000185578063c4ae316814620001a5578063d966183814620001b1578063e5a6b10f14620001e7578063f2fde38b146200020957620000b8565b80631aa3a00814620000bd57806347e7ef2414620000df57806357ceabee14620000ff5780635c975abb1462000135578063715018a61462000157575b600080fd5b620000c762000229565b604051620000d691906200163c565b60405180910390f35b620000fd6004803603810190620000f79190620013be565b62000604565b005b6200011d600480360381019062000117919062001366565b62000af3565b6040516200012c91906200171d565b60405180910390f35b6200013f62000bc2565b6040516200014e919062001741565b60405180910390f35b6200016162000bd9565b005b6200016d62000c6a565b6040516200017c91906200163c565b60405180910390f35b620001a360048036038101906200019d919062001366565b62000c93565b005b620001af62000e9c565b005b620001cf6004803603810190620001c99190620013be565b62000f4b565b604051620001de91906200163c565b60405180910390f35b620001f162000f9a565b6040516200020091906200163c565b60405180910390f35b62000227600480360381019062000221919062001366565b62000fbe565b005b60006002600154141562000274576040517f08c379a00000000000000000000000000000000000000000000000000000000081526004016200026b9062001842565b60405180910390fd5b60026001819055506200028662000bc2565b15620002c9576040517f08c379a0000000000000000000000000000000000000000000000000000000008152600401620002c090620017dc565b60405180910390fd5b6000670de0b6b3a7640000604051620002e290620012e5565b620002ee91906200175e565b604051809103906000f0801580156200030b573d6000803e3d6000fd5b50905060007f000000000000000000000000000000000000000000000000000000000000000073ffffffffffffffffffffffffffffffffffffffff1663a6f979ff62000356620010c2565b846040518363ffffffff1660e01b81526004016200037692919062001659565b602060405180830381600087803b1580156200039157600080fd5b505af1158015620003a6573d6000803e3d6000fd5b505050506040513d601f19601f82011682018060405250810190620003cc919062001392565b905060036000620003dc620010c2565b73ffffffffffffffffffffffffffffffffffffffff1673ffffffffffffffffffffffffffffffffffffffff168152602001908152602001600020819080600181540180825580915050600190039060005260206000200160009091909190916101000a81548173ffffffffffffffffffffffffffffffffffffffff021916908373ffffffffffffffffffffffffffffffffffffffff1602179055508173ffffffffffffffffffffffffffffffffffffffff166342966c686658d15e176280006040518263ffffffff1660e01b8152600401620004b991906200177b565b600060405180830381600087803b158015620004d457600080fd5b505af1158015620004e9573d6000803e3d6000fd5b505050508173ffffffffffffffffffffffffffffffffffffffff1663a9059cbb62000513620010c2565b670d2f13f7789f00006040518363ffffffff1660e01b81526004016200053b929190620016c3565b602060405180830381600087803b1580156200055657600080fd5b505af11580156200056b573d6000803e3d6000fd5b505050506040513d601f19601f82011682018060405250810190620005919190620013ff565b508073ffffffffffffffffffffffffffffffffffffffff16620005b3620010c2565b73ffffffffffffffffffffffffffffffffffffffff167f076eada2b266f926d3ecb187dece20428d68db62016c04bea8ccb92679f788de60405160405180910390a380925050506001808190555090565b600260015414156200064d576040517f08c379a0000000000000000000000000000000000000000000000000000000008152600401620006449062001842565b60405180910390fd5b60026001819055506200065f62000bc2565b15620006a2576040517f08c379a00000000000000000000000000000000000000000000000000000000081526004016200069990620017dc565b60405180910390fd5b60008290508073ffffffffffffffffffffffffffffffffffffffff166341b3d1856040518163ffffffff1660e01b8152600401602060405180830381600087803b158015620006f057600080fd5b505af115801562000705573d6000803e3d6000fd5b505050506040513d601f19601f820116820180604052508101906200072b91906200142b565b82101562000770576040517f08c379a0000000000000000000000000000000000000000000000000000000008152600401620007679062001820565b60405180910390fd5b7f000000000000000000000000000000000000000000000000000000000000000073ffffffffffffffffffffffffffffffffffffffff166323b872dd620007b6620010c2565b30856040518463ffffffff1660e01b8152600401620007d89392919062001686565b602060405180830381600087803b158015620007f357600080fd5b505af115801562000808573d6000803e3d6000fd5b505050506040513d601f19601f820116820180604052508101906200082e9190620013ff565b5060008173ffffffffffffffffffffffffffffffffffffffff16633fdb8cbd6040518163ffffffff1660e01b8152600401602060405180830381600087803b1580156200087a57600080fd5b505af11580156200088f573d6000803e3d6000fd5b505050506040513d601f19601f82011682018060405250810190620008b5919062001392565b90507f000000000000000000000000000000000000000000000000000000000000000073ffffffffffffffffffffffffffffffffffffffff1663095ea7b382856040518363ffffffff1660e01b815260040162000914929190620016f0565b602060405180830381600087803b1580156200092f57600080fd5b505af115801562000944573d6000803e3d6000fd5b505050506040513d601f19601f820116820180604052508101906200096a9190620013ff565b508073ffffffffffffffffffffffffffffffffffffffff1663fb9321087f0000000000000000000000000000000000000000000000000000000000000000856040518363ffffffff1660e01b8152600401620009c8929190620016f0565b600060405180830381600087803b158015620009e357600080fd5b505af1158015620009f8573d6000803e3d6000fd5b505050508173ffffffffffffffffffffffffffffffffffffffff166347e7ef2462000a22620010c2565b856040518363ffffffff1660e01b815260040162000a42929190620016f0565b600060405180830381600087803b15801562000a5d57600080fd5b505af115801562000a72573d6000803e3d6000fd5b505050508373ffffffffffffffffffffffffffffffffffffffff1662000a97620010c2565b73ffffffffffffffffffffffffffffffffffffffff167f8752a472e571a816aea92eec8dae9baf628e840f4929fbcc2d155e6233ff68a78560405162000ade919062001864565b60405180910390a35050600180819055505050565b6060600360008373ffffffffffffffffffffffffffffffffffffffff1673ffffffffffffffffffffffffffffffffffffffff16815260200190815260200160002080548060200260200160405190810160405280929190818152602001828054801562000bb657602002820191906000526020600020905b8160009054906101000a900473ffffffffffffffffffffffffffffffffffffffff1673ffffffffffffffffffffffffffffffffffffffff168152602001906001019080831162000b6b575b50505050509050919050565b6000600260009054906101000a900460ff16905090565b62000be3620010c2565b73ffffffffffffffffffffffffffffffffffffffff1662000c0362000c6a565b73ffffffffffffffffffffffffffffffffffffffff161462000c5c576040517f08c379a000000000000000000000000000000000000000000000000000000000815260040162000c5390620017fe565b60405180910390fd5b62000c686000620010ca565b565b60008060009054906101000a900473ffffffffffffffffffffffffffffffffffffffff16905090565b62000c9d620010c2565b73ffffffffffffffffffffffffffffffffffffffff1662000cbd62000c6a565b73ffffffffffffffffffffffffffffffffffffffff161462000d16576040517f08c379a000000000000000000000000000000000000000000000000000000000815260040162000d0d90620017fe565b60405180910390fd5b6002600154141562000d5f576040517f08c379a000000000000000000000000000000000000000000000000000000000815260040162000d569062001842565b60405180910390fd5b60026001819055508073ffffffffffffffffffffffffffffffffffffffff1663a9059cbb62000d8d62000c6a565b8373ffffffffffffffffffffffffffffffffffffffff166370a08231306040518263ffffffff1660e01b815260040162000dc891906200163c565b60206040518083038186803b15801562000de157600080fd5b505afa15801562000df6573d6000803e3d6000fd5b505050506040513d601f19601f8201168201806040525081019062000e1c91906200142b565b6040518363ffffffff1660e01b815260040162000e3b929190620016f0565b602060405180830381600087803b15801562000e5657600080fd5b505af115801562000e6b573d6000803e3d6000fd5b505050506040513d601f19601f8201168201806040525081019062000e919190620013ff565b506001808190555050565b62000ea6620010c2565b73ffffffffffffffffffffffffffffffffffffffff1662000ec662000c6a565b73ffffffffffffffffffffffffffffffffffffffff161462000f1f576040517f08c379a000000000000000000000000000000000000000000000000000000000815260040162000f1690620017fe565b60405180910390fd5b62000f2962000bc2565b62000f3e5762000f386200118e565b62000f49565b62000f486200123a565b5b565b6003602052816000526040600020818154811062000f6857600080fd5b906000526020600020016000915091509054906101000a900473ffffffffffffffffffffffffffffffffffffffff1681565b7f000000000000000000000000000000000000000000000000000000000000000081565b62000fc8620010c2565b73ffffffffffffffffffffffffffffffffffffffff1662000fe862000c6a565b73ffffffffffffffffffffffffffffffffffffffff161462001041576040517f08c379a00000000000000000000000000000000000000000000000000000000081526004016200103890620017fe565b60405180910390fd5b600073ffffffffffffffffffffffffffffffffffffffff168173ffffffffffffffffffffffffffffffffffffffff161415620010b4576040517f08c379a0000000000000000000000000000000000000000000000000000000008152600401620010ab90620017ba565b60405180910390fd5b620010bf81620010ca565b50565b600033905090565b60008060009054906101000a900473ffffffffffffffffffffffffffffffffffffffff169050816000806101000a81548173ffffffffffffffffffffffffffffffffffffffff021916908373ffffffffffffffffffffffffffffffffffffffff1602179055508173ffffffffffffffffffffffffffffffffffffffff168173ffffffffffffffffffffffffffffffffffffffff167f8be0079c531659141344cd1fd0a4f28419497f9722a3daafe3b4186f6b6457e060405160405180910390a35050565b6200119862000bc2565b15620011db576040517f08c379a0000000000000000000000000000000000000000000000000000000008152600401620011d290620017dc565b60405180910390fd5b6001600260006101000a81548160ff0219169083151502179055507f62e78cea01bee320cd4e420270b5ea74000d11b0c9f74754ebdbfc544b05a25862001221620010c2565b6040516200123091906200163c565b60405180910390a1565b6200124462000bc2565b62001286576040517f08c379a00000000000000000000000000000000000000000000000000000000081526004016200127d9062001798565b60405180910390fd5b6000600260006101000a81548160ff0219169083151502179055507f5db9ee0a495bf2e6ff9c91a7834c1ba4fdd244a5e8aa4e537bd38aeae4b073aa620012cc620010c2565b604051620012db91906200163c565b60405180910390a1565b6130888062001abc83390190565b600081359050620013048162001a6d565b92915050565b6000815190506200131b8162001a6d565b92915050565b600081519050620013328162001a87565b92915050565b600081359050620013498162001aa1565b92915050565b600081519050620013608162001aa1565b92915050565b6000602082840312156200137957600080fd5b60006200138984828501620012f3565b91505092915050565b600060208284031215620013a557600080fd5b6000620013b5848285016200130a565b91505092915050565b60008060408385031215620013d257600080fd5b6000620013e285828601620012f3565b9250506020620013f58582860162001338565b9150509250929050565b6000602082840312156200141257600080fd5b6000620014228482850162001321565b91505092915050565b6000602082840312156200143e57600080fd5b60006200144e848285016200134f565b91505092915050565b600062001465838362001471565b60208301905092915050565b6200147c81620018cb565b82525050565b6200148d81620018cb565b82525050565b6000620014a08262001891565b620014ac8185620018a9565b9350620014b98362001881565b8060005b83811015620014f0578151620014d4888262001457565b9750620014e1836200189c565b925050600181019050620014bd565b5085935050505092915050565b6200150881620018df565b82525050565b620015198162001915565b82525050565b6200152a8162001929565b82525050565b6200153b816200193d565b82525050565b600062001550601483620018ba565b91506200155d8262001951565b602082019050919050565b600062001577602683620018ba565b915062001584826200197a565b604082019050919050565b60006200159e601083620018ba565b9150620015ab82620019c9565b602082019050919050565b6000620015c5602083620018ba565b9150620015d282620019f2565b602082019050919050565b6000620015ec601383620018ba565b9150620015f98262001a1b565b602082019050919050565b600062001613601f83620018ba565b9150620016208262001a44565b602082019050919050565b62001636816200190b565b82525050565b600060208201905062001653600083018462001482565b92915050565b600060408201905062001670600083018562001482565b6200167f602083018462001482565b9392505050565b60006060820190506200169d600083018662001482565b620016ac602083018562001482565b620016bb60408301846200162b565b949350505050565b6000604082019050620016da600083018562001482565b620016e9602083018462001530565b9392505050565b600060408201905062001707600083018562001482565b6200171660208301846200162b565b9392505050565b6000602082019050818103600083015262001739818462001493565b905092915050565b6000602082019050620017586000830184620014fd565b92915050565b60006020820190506200177560008301846200150e565b92915050565b60006020820190506200179260008301846200151f565b92915050565b60006020820190508181036000830152620017b38162001541565b9050919050565b60006020820190508181036000830152620017d58162001568565b9050919050565b60006020820190508181036000830152620017f7816200158f565b9050919050565b600060208201905081810360008301526200181981620015b6565b9050919050565b600060208201905081810360008301526200183b81620015dd565b9050919050565b600060208201905081810360008301526200185d8162001604565b9050919050565b60006020820190506200187b60008301846200162b565b92915050565b6000819050602082019050919050565b600081519050919050565b6000602082019050919050565b600082825260208201905092915050565b600082825260208201905092915050565b6000620018d882620018eb565b9050919050565b60008115159050919050565b600073ffffffffffffffffffffffffffffffffffffffff82169050919050565b6000819050919050565b600062001922826200190b565b9050919050565b600062001936826200190b565b9050919050565b60006200194a826200190b565b9050919050565b7f5061757361626c653a206e6f7420706175736564000000000000000000000000600082015250565b7f4f776e61626c653a206e6577206f776e657220697320746865207a65726f206160008201527f6464726573730000000000000000000000000000000000000000000000000000602082015250565b7f5061757361626c653a2070617573656400000000000000000000000000000000600082015250565b7f4f776e61626c653a2063616c6c6572206973206e6f7420746865206f776e6572600082015250565b7f496e73756666696369656e7420616d6f756e7400000000000000000000000000600082015250565b7f5265656e7472616e637947756172643a207265656e7472616e742063616c6c00600082015250565b62001a7881620018cb565b811462001a8457600080fd5b50565b62001a9281620018df565b811462001a9e57600080fd5b50565b62001aac816200190b565b811462001ab857600080fd5b5056fe60a06040523480156200001157600080fd5b506040516200308838038062003088833981810160405281019062000037919062000818565b6040518060400160405280601281526020017f446973747269627574696f6e20546f6b656e00000000000000000000000000008152506040518060400160405280600281526020017f44540000000000000000000000000000000000000000000000000000000000008152508160039080519060200190620000bb92919062000751565b508060049080519060200190620000d492919062000751565b505050620000f7620000eb6200012760201b60201c565b6200012f60201b60201c565b806080818152505062000120620001136200012760201b60201c565b82620001f560201b60201c565b5062000a93565b600033905090565b6000600560009054906101000a900473ffffffffffffffffffffffffffffffffffffffff16905081600560006101000a81548173ffffffffffffffffffffffffffffffffffffffff021916908373ffffffffffffffffffffffffffffffffffffffff1602179055508173ffffffffffffffffffffffffffffffffffffffff168173ffffffffffffffffffffffffffffffffffffffff167f8be0079c531659141344cd1fd0a4f28419497f9722a3daafe3b4186f6b6457e060405160405180910390a35050565b600073ffffffffffffffffffffffffffffffffffffffff168273ffffffffffffffffffffffffffffffffffffffff16141562000268576040517f08c379a00000000000000000000000000000000000000000000000000000000081526004016200025f906200087c565b60405180910390fd5b6200027c600083836200036e60201b60201c565b8060026000828254620002909190620008cc565b92505081905550806000808473ffffffffffffffffffffffffffffffffffffffff1673ffffffffffffffffffffffffffffffffffffffff1681526020019081526020016000206000828254620002e79190620008cc565b925050819055508173ffffffffffffffffffffffffffffffffffffffff16600073ffffffffffffffffffffffffffffffffffffffff167fddf252ad1be2c89b69c2b068fc378daa952ba7f163c4a11628f55a4df523b3ef836040516200034e91906200089e565b60405180910390a36200036a600083836200044360201b60201c565b5050565b62000386838383620006ff60201b62000daf1760201c565b600073ffffffffffffffffffffffffffffffffffffffff168273ffffffffffffffffffffffffffffffffffffffff1614158015620003d457506000620003d2836200070460201b60201c565b145b156200043e576006829080600181540180825580915050600190039060005260206000200160009091909190916101000a81548173ffffffffffffffffffffffffffffffffffffffff021916908373ffffffffffffffffffffffffffffffffffffffff1602179055505b505050565b6200045b8383836200074c60201b62000db41760201c565b60006200046e846200070460201b60201c565b1415620006a85760005b600680549050811015620006a6578373ffffffffffffffffffffffffffffffffffffffff1660068281548110620004d8577f4e487b7100000000000000000000000000000000000000000000000000000000600052603260045260246000fd5b9060005260206000200160009054906101000a900473ffffffffffffffffffffffffffffffffffffffff1673ffffffffffffffffffffffffffffffffffffffff16141562000690576006600160068054905062000536919062000929565b815481106200056e577f4e487b7100000000000000000000000000000000000000000000000000000000600052603260045260246000fd5b9060005260206000200160009054906101000a900473ffffffffffffffffffffffffffffffffffffffff1660068281548110620005d4577f4e487b7100000000000000000000000000000000000000000000000000000000600052603260045260246000fd5b9060005260206000200160006101000a81548173ffffffffffffffffffffffffffffffffffffffff021916908373ffffffffffffffffffffffffffffffffffffffff160217905550600680548062000655577f4e487b7100000000000000000000000000000000000000000000000000000000600052603160045260246000fd5b6001900381819060005260206000200160006101000a81549073ffffffffffffffffffffffffffffffffffffffff02191690559055620006a6565b80806200069d90620009a4565b91505062000478565b505b600073ffffffffffffffffffffffffffffffffffffffff168273ffffffffffffffffffffffffffffffffffffffff161415620006fa578060076000828254620006f29190620008cc565b925050819055505b505050565b505050565b60008060008373ffffffffffffffffffffffffffffffffffffffff1673ffffffffffffffffffffffffffffffffffffffff168152602001908152602001600020549050919050565b505050565b8280546200075f906200096e565b90600052602060002090601f016020900481019282620007835760008555620007cf565b82601f106200079e57805160ff1916838001178555620007cf565b82800160010185558215620007cf579182015b82811115620007ce578251825591602001919060010190620007b1565b5b509050620007de9190620007e2565b5090565b5b80821115620007fd576000816000905550600101620007e3565b5090565b600081519050620008128162000a79565b92915050565b6000602082840312156200082b57600080fd5b60006200083b8482850162000801565b91505092915050565b600062000853601f83620008bb565b9150620008608262000a50565b602082019050919050565b620008768162000964565b82525050565b60006020820190508181036000830152620008978162000844565b9050919050565b6000602082019050620008b560008301846200086b565b92915050565b600082825260208201905092915050565b6000620008d98262000964565b9150620008e68362000964565b9250827fffffffffffffffffffffffffffffffffffffffffffffffffffffffffffffffff038211156200091e576200091d620009f2565b5b828201905092915050565b6000620009368262000964565b9150620009438362000964565b925082821015620009595762000958620009f2565b5b828203905092915050565b6000819050919050565b600060028204905060018216806200098757607f821691505b602082108114156200099e576200099d62000a21565b5b50919050565b6000620009b18262000964565b91507fffffffffffffffffffffffffffffffffffffffffffffffffffffffffffffffff821415620009e757620009e6620009f2565b5b600182019050919050565b7f4e487b7100000000000000000000000000000000000000000000000000000000600052601160045260246000fd5b7f4e487b7100000000000000000000000000000000000000000000000000000000600052602260045260246000fd5b7f45524332303a206d696e7420746f20746865207a65726f206164647265737300600082015250565b62000a848162000964565b811462000a9057600080fd5b50565b6080516125d262000ab660003960008181610643015261067d01526125d26000f3fe608060405234801561001057600080fd5b50600436106101425760003560e01c8063715018a6116100b8578063a9059cbb1161007c578063a9059cbb1461038d578063bed99850146103bd578063c80a3aa6146103db578063dd62ed3e146103f9578063f2fde38b14610429578063fb9321081461044557610142565b8063715018a6146102fb57806379cc6790146103055780638da5cb5b1461032157806395d89b411461033f578063a457c2d71461035d57610142565b8063313ce5671161010a578063313ce5671461021357806339509351146102315780633a98ef391461026157806342966c681461027f57806343dd7cc81461029b57806370a08231146102cb57610142565b806306fdde0314610147578063095ea7b31461016557806318160ddd1461019557806323b872dd146101b35780632a11ced0146101e3575b600080fd5b61014f610461565b60405161015c9190611d7b565b60405180910390f35b61017f600480360381019061017a919061197e565b6104f3565b60405161018c9190611d60565b60405180910390f35b61019d610516565b6040516101aa9190611efd565b60405180910390f35b6101cd60048036038101906101c8919061192f565b610520565b6040516101da9190611d60565b60405180910390f35b6101fd60048036038101906101f891906119e3565b61054f565b60405161020a9190611cc3565b60405180910390f35b61021b61058e565b6040516102289190611f18565b60405180910390f35b61024b6004803603810190610246919061197e565b610597565b6040516102589190611d60565b60405180910390f35b610269610641565b6040516102769190611efd565b60405180910390f35b610299600480360381019061029491906119e3565b610665565b005b6102b560048036038101906102b09190611a0c565b610679565b6040516102c29190611efd565b60405180910390f35b6102e560048036038101906102e091906118ca565b6106ba565b6040516102f29190611efd565b60405180910390f35b610303610702565b005b61031f600480360381019061031a919061197e565b61078a565b005b6103296107aa565b6040516103369190611cc3565b60405180910390f35b6103476107d4565b6040516103549190611d7b565b60405180910390f35b6103776004803603810190610372919061197e565b610866565b6040516103849190611d60565b60405180910390f35b6103a760048036038101906103a2919061197e565b610950565b6040516103b49190611d60565b60405180910390f35b6103c5610973565b6040516103d29190611efd565b60405180910390f35b6103e3610979565b6040516103f09190611d3e565b60405180910390f35b610413600480360381019061040e91906118f3565b610a07565b6040516104209190611efd565b60405180910390f35b610443600480360381019061043e91906118ca565b610a8e565b005b61045f600480360381019061045a919061197e565b610b86565b005b60606003805461047090612125565b80601f016020809104026020016040519081016040528092919081815260200182805461049c90612125565b80156104e95780601f106104be576101008083540402835291602001916104e9565b820191906000526020600020905b8154815290600101906020018083116104cc57829003601f168201915b5050505050905090565b6000806104fe610db9565b905061050b818585610dc1565b600191505092915050565b6000600254905090565b60008061052b610db9565b9050610538858285610f8c565b610543858585611018565b60019150509392505050565b6006818154811061055f57600080fd5b906000526020600020016000915054906101000a900473ffffffffffffffffffffffffffffffffffffffff1681565b60006012905090565b6000806105a2610db9565b9050610636818585600160008673ffffffffffffffffffffffffffffffffffffffff1673ffffffffffffffffffffffffffffffffffffffff16815260200190815260200160002060008973ffffffffffffffffffffffffffffffffffffffff1673ffffffffffffffffffffffffffffffffffffffff168152602001908152602001600020546106319190611f88565b610dc1565b600191505092915050565b7f000000000000000000000000000000000000000000000000000000000000000081565b610676610670610db9565b82611299565b50565b60007f000000000000000000000000000000000000000000000000000000000000000083836106a8919061200f565b6106b29190611fde565b905092915050565b60008060008373ffffffffffffffffffffffffffffffffffffffff1673ffffffffffffffffffffffffffffffffffffffff168152602001908152602001600020549050919050565b61070a610db9565b73ffffffffffffffffffffffffffffffffffffffff166107286107aa565b73ffffffffffffffffffffffffffffffffffffffff161461077e576040517f08c379a000000000000000000000000000000000000000000000000000000000815260040161077590611e5d565b60405180910390fd5b6107886000611470565b565b61079c82610796610db9565b83610f8c565b6107a68282611299565b5050565b6000600560009054906101000a900473ffffffffffffffffffffffffffffffffffffffff16905090565b6060600480546107e390612125565b80601f016020809104026020016040519081016040528092919081815260200182805461080f90612125565b801561085c5780601f106108315761010080835404028352916020019161085c565b820191906000526020600020905b81548152906001019060200180831161083f57829003601f168201915b5050505050905090565b600080610871610db9565b90506000600160008373ffffffffffffffffffffffffffffffffffffffff1673ffffffffffffffffffffffffffffffffffffffff16815260200190815260200160002060008673ffffffffffffffffffffffffffffffffffffffff1673ffffffffffffffffffffffffffffffffffffffff16815260200190815260200160002054905083811015610937576040517f08c379a000000000000000000000000000000000000000000000000000000000815260040161092e90611edd565b60405180910390fd5b6109448286868403610dc1565b60019250505092915050565b60008061095b610db9565b9050610968818585611018565b600191505092915050565b60075481565b606060068054806020026020016040519081016040528092919081815260200182805480156109fd57602002820191906000526020600020905b8160009054906101000a900473ffffffffffffffffffffffffffffffffffffffff1673ffffffffffffffffffffffffffffffffffffffff16815260200190600101908083116109b3575b5050505050905090565b6000600160008473ffffffffffffffffffffffffffffffffffffffff1673ffffffffffffffffffffffffffffffffffffffff16815260200190815260200160002060008373ffffffffffffffffffffffffffffffffffffffff1673ffffffffffffffffffffffffffffffffffffffff16815260200190815260200160002054905092915050565b610a96610db9565b73ffffffffffffffffffffffffffffffffffffffff16610ab46107aa565b73ffffffffffffffffffffffffffffffffffffffff1614610b0a576040517f08c379a0000000000000000000000000000000000000000000000000000000008152600401610b0190611e5d565b60405180910390fd5b600073ffffffffffffffffffffffffffffffffffffffff168173ffffffffffffffffffffffffffffffffffffffff161415610b7a576040517f08c379a0000000000000000000000000000000000000000000000000000000008152600401610b7190611ddd565b60405180910390fd5b610b8381611470565b50565b600082905060006007541115610c16578073ffffffffffffffffffffffffffffffffffffffff166379cc6790610bba610db9565b610bc685600754610679565b6040518363ffffffff1660e01b8152600401610be3929190611d15565b600060405180830381600087803b158015610bfd57600080fd5b505af1158015610c11573d6000803e3d6000fd5b505050505b60005b600680549050811015610da9578173ffffffffffffffffffffffffffffffffffffffff166323b872dd610c4a610db9565b60068481548110610c84577f4e487b7100000000000000000000000000000000000000000000000000000000600052603260045260246000fd5b9060005260206000200160009054906101000a900473ffffffffffffffffffffffffffffffffffffffff16610d2587610d2060068881548110610cf0577f4e487b7100000000000000000000000000000000000000000000000000000000600052603260045260246000fd5b9060005260206000200160009054906101000a900473ffffffffffffffffffffffffffffffffffffffff166106ba565b610679565b6040518463ffffffff1660e01b8152600401610d4393929190611cde565b602060405180830381600087803b158015610d5d57600080fd5b505af1158015610d71573d6000803e3d6000fd5b505050506040513d601f19601f82011682018060405250810190610d9591906119ba565b508080610da190612157565b915050610c19565b50505050565b505050565b505050565b600033905090565b600073ffffffffffffffffffffffffffffffffffffffff168373ffffffffffffffffffffffffffffffffffffffff161415610e31576040517f08c379a0000000000000000000000000000000000000000000000000000000008152600401610e2890611ebd565b60405180910390fd5b600073ffffffffffffffffffffffffffffffffffffffff168273ffffffffffffffffffffffffffffffffffffffff161415610ea1576040517f08c379a0000000000000000000000000000000000000000000000000000000008152600401610e9890611dfd565b60405180910390fd5b80600160008573ffffffffffffffffffffffffffffffffffffffff1673ffffffffffffffffffffffffffffffffffffffff16815260200190815260200160002060008473ffffffffffffffffffffffffffffffffffffffff1673ffffffffffffffffffffffffffffffffffffffff168152602001908152602001600020819055508173ffffffffffffffffffffffffffffffffffffffff168373ffffffffffffffffffffffffffffffffffffffff167f8c5be1e5ebec7d5bd14f71427d1e84f3dd0314c0f7b2291e5b200ac8c7c3b92583604051610f7f9190611efd565b60405180910390a3505050565b6000610f988484610a07565b90507fffffffffffffffffffffffffffffffffffffffffffffffffffffffffffffffff81146110125781811015611004576040517f08c379a0000000000000000000000000000000000000000000000000000000008152600401610ffb90611e1d565b60405180910390fd5b6110118484848403610dc1565b5b50505050565b600073ffffffffffffffffffffffffffffffffffffffff168373ffffffffffffffffffffffffffffffffffffffff161415611088576040517f08c379a000000000000000000000000000000000000000000000000000000000815260040161107f90611e9d565b60405180910390fd5b600073ffffffffffffffffffffffffffffffffffffffff168273ffffffffffffffffffffffffffffffffffffffff1614156110f8576040517f08c379a00000000000000000000000000000000000000000000000000000000081526004016110ef90611d9d565b60405180910390fd5b611103838383611536565b60008060008573ffffffffffffffffffffffffffffffffffffffff1673ffffffffffffffffffffffffffffffffffffffff16815260200190815260200160002054905081811015611189576040517f08c379a000000000000000000000000000000000000000000000000000000000815260040161118090611e3d565b60405180910390fd5b8181036000808673ffffffffffffffffffffffffffffffffffffffff1673ffffffffffffffffffffffffffffffffffffffff16815260200190815260200160002081905550816000808573ffffffffffffffffffffffffffffffffffffffff1673ffffffffffffffffffffffffffffffffffffffff168152602001908152602001600020600082825461121c9190611f88565b925050819055508273ffffffffffffffffffffffffffffffffffffffff168473ffffffffffffffffffffffffffffffffffffffff167fddf252ad1be2c89b69c2b068fc378daa952ba7f163c4a11628f55a4df523b3ef846040516112809190611efd565b60405180910390a36112938484846115f4565b50505050565b600073ffffffffffffffffffffffffffffffffffffffff168273ffffffffffffffffffffffffffffffffffffffff161415611309576040517f08c379a000000000000000000000000000000000000000000000000000000000815260040161130090611e7d565b60405180910390fd5b61131582600083611536565b60008060008473ffffffffffffffffffffffffffffffffffffffff1673ffffffffffffffffffffffffffffffffffffffff1681526020019081526020016000205490508181101561139b576040517f08c379a000000000000000000000000000000000000000000000000000000000815260040161139290611dbd565b60405180910390fd5b8181036000808573ffffffffffffffffffffffffffffffffffffffff1673ffffffffffffffffffffffffffffffffffffffff1681526020019081526020016000208190555081600260008282546113f29190612069565b92505081905550600073ffffffffffffffffffffffffffffffffffffffff168373ffffffffffffffffffffffffffffffffffffffff167fddf252ad1be2c89b69c2b068fc378daa952ba7f163c4a11628f55a4df523b3ef846040516114579190611efd565b60405180910390a361146b836000846115f4565b505050565b6000600560009054906101000a900473ffffffffffffffffffffffffffffffffffffffff16905081600560006101000a81548173ffffffffffffffffffffffffffffffffffffffff021916908373ffffffffffffffffffffffffffffffffffffffff1602179055508173ffffffffffffffffffffffffffffffffffffffff168173ffffffffffffffffffffffffffffffffffffffff167f8be0079c531659141344cd1fd0a4f28419497f9722a3daafe3b4186f6b6457e060405160405180910390a35050565b611541838383610daf565b600073ffffffffffffffffffffffffffffffffffffffff168273ffffffffffffffffffffffffffffffffffffffff161415801561158657506000611584836106ba565b145b156115ef576006829080600181540180825580915050600190039060005260206000200160009091909190916101000a81548173ffffffffffffffffffffffffffffffffffffffff021916908373ffffffffffffffffffffffffffffffffffffffff1602179055505b505050565b6115ff838383610db4565b600061160a846106ba565b14156118375760005b600680549050811015611835578373ffffffffffffffffffffffffffffffffffffffff1660068281548110611671577f4e487b7100000000000000000000000000000000000000000000000000000000600052603260045260246000fd5b9060005260206000200160009054906101000a900473ffffffffffffffffffffffffffffffffffffffff1673ffffffffffffffffffffffffffffffffffffffff16141561182257600660016006805490506116cc9190612069565b81548110611703577f4e487b7100000000000000000000000000000000000000000000000000000000600052603260045260246000fd5b9060005260206000200160009054906101000a900473ffffffffffffffffffffffffffffffffffffffff1660068281548110611768577f4e487b7100000000000000000000000000000000000000000000000000000000600052603260045260246000fd5b9060005260206000200160006101000a81548173ffffffffffffffffffffffffffffffffffffffff021916908373ffffffffffffffffffffffffffffffffffffffff16021790555060068054806117e8577f4e487b7100000000000000000000000000000000000000000000000000000000600052603160045260246000fd5b6001900381819060005260206000200160006101000a81549073ffffffffffffffffffffffffffffffffffffffff02191690559055611835565b808061182d90612157565b915050611613565b505b600073ffffffffffffffffffffffffffffffffffffffff168273ffffffffffffffffffffffffffffffffffffffff16141561188657806007600082825461187e9190611f88565b925050819055505b505050565b60008135905061189a81612557565b92915050565b6000815190506118af8161256e565b92915050565b6000813590506118c481612585565b92915050565b6000602082840312156118dc57600080fd5b60006118ea8482850161188b565b91505092915050565b6000806040838503121561190657600080fd5b60006119148582860161188b565b92505060206119258582860161188b565b9150509250929050565b60008060006060848603121561194457600080fd5b60006119528682870161188b565b93505060206119638682870161188b565b9250506040611974868287016118b5565b9150509250925092565b6000806040838503121561199157600080fd5b600061199f8582860161188b565b92505060206119b0858286016118b5565b9150509250929050565b6000602082840312156119cc57600080fd5b60006119da848285016118a0565b91505092915050565b6000602082840312156119f557600080fd5b6000611a03848285016118b5565b91505092915050565b60008060408385031215611a1f57600080fd5b6000611a2d858286016118b5565b9250506020611a3e858286016118b5565b9150509250929050565b6000611a548383611a60565b60208301905092915050565b611a698161209d565b82525050565b611a788161209d565b82525050565b6000611a8982611f43565b611a938185611f66565b9350611a9e83611f33565b8060005b83811015611acf578151611ab68882611a48565b9750611ac183611f59565b925050600181019050611aa2565b5085935050505092915050565b611ae5816120af565b82525050565b6000611af682611f4e565b611b008185611f77565b9350611b108185602086016120f2565b611b198161222d565b840191505092915050565b6000611b31602383611f77565b9150611b3c8261223e565b604082019050919050565b6000611b54602283611f77565b9150611b5f8261228d565b604082019050919050565b6000611b77602683611f77565b9150611b82826122dc565b604082019050919050565b6000611b9a602283611f77565b9150611ba58261232b565b604082019050919050565b6000611bbd601d83611f77565b9150611bc88261237a565b602082019050919050565b6000611be0602683611f77565b9150611beb826123a3565b604082019050919050565b6000611c03602083611f77565b9150611c0e826123f2565b602082019050919050565b6000611c26602183611f77565b9150611c318261241b565b604082019050919050565b6000611c49602583611f77565b9150611c548261246a565b604082019050919050565b6000611c6c602483611f77565b9150611c77826124b9565b604082019050919050565b6000611c8f602583611f77565b9150611c9a82612508565b604082019050919050565b611cae816120db565b82525050565b611cbd816120e5565b82525050565b6000602082019050611cd86000830184611a6f565b92915050565b6000606082019050611cf36000830186611a6f565b611d006020830185611a6f565b611d0d6040830184611ca5565b949350505050565b6000604082019050611d2a6000830185611a6f565b611d376020830184611ca5565b9392505050565b60006020820190508181036000830152611d588184611a7e565b905092915050565b6000602082019050611d756000830184611adc565b92915050565b60006020820190508181036000830152611d958184611aeb565b905092915050565b60006020820190508181036000830152611db681611b24565b9050919050565b60006020820190508181036000830152611dd681611b47565b9050919050565b60006020820190508181036000830152611df681611b6a565b9050919050565b60006020820190508181036000830152611e1681611b8d565b9050919050565b60006020820190508181036000830152611e3681611bb0565b9050919050565b60006020820190508181036000830152611e5681611bd3565b9050919050565b60006020820190508181036000830152611e7681611bf6565b9050919050565b60006020820190508181036000830152611e9681611c19565b9050919050565b60006020820190508181036000830152611eb681611c3c565b9050919050565b60006020820190508181036000830152611ed681611c5f565b9050919050565b60006020820190508181036000830152611ef681611c82565b9050919050565b6000602082019050611f126000830184611ca5565b92915050565b6000602082019050611f2d6000830184611cb4565b92915050565b6000819050602082019050919050565b600081519050919050565b600081519050919050565b6000602082019050919050565b600082825260208201905092915050565b600082825260208201905092915050565b6000611f93826120db565b9150611f9e836120db565b9250827fffffffffffffffffffffffffffffffffffffffffffffffffffffffffffffffff03821115611fd357611fd26121a0565b5b828201905092915050565b6000611fe9826120db565b9150611ff4836120db565b925082612004576120036121cf565b5b828204905092915050565b600061201a826120db565b9150612025836120db565b9250817fffffffffffffffffffffffffffffffffffffffffffffffffffffffffffffffff048311821515161561205e5761205d6121a0565b5b828202905092915050565b6000612074826120db565b915061207f836120db565b925082821015612092576120916121a0565b5b828203905092915050565b60006120a8826120bb565b9050919050565b60008115159050919050565b600073ffffffffffffffffffffffffffffffffffffffff82169050919050565b6000819050919050565b600060ff82169050919050565b60005b838110156121105780820151818401526020810190506120f5565b8381111561211f576000848401525b50505050565b6000600282049050600182168061213d57607f821691505b60208210811415612151576121506121fe565b5b50919050565b6000612162826120db565b91507fffffffffffffffffffffffffffffffffffffffffffffffffffffffffffffffff821415612195576121946121a0565b5b600182019050919050565b7f4e487b7100000000000000000000000000000000000000000000000000000000600052601160045260246000fd5b7f4e487b7100000000000000000000000000000000000000000000000000000000600052601260045260246000fd5b7f4e487b7100000000000000000000000000000000000000000000000000000000600052602260045260246000fd5b6000601f19601f8301169050919050565b7f45524332303a207472616e7366657220746f20746865207a65726f206164647260008201527f6573730000000000000000000000000000000000000000000000000000000000602082015250565b7f45524332303a206275726e20616d6f756e7420657863656564732062616c616e60008201527f6365000000000000000000000000000000000000000000000000000000000000602082015250565b7f4f776e61626c653a206e6577206f776e657220697320746865207a65726f206160008201527f6464726573730000000000000000000000000000000000000000000000000000602082015250565b7f45524332303a20617070726f766520746f20746865207a65726f20616464726560008201527f7373000000000000000000000000000000000000000000000000000000000000602082015250565b7f45524332303a20696e73756666696369656e7420616c6c6f77616e6365000000600082015250565b7f45524332303a207472616e7366657220616d6f756e742065786365656473206260008201527f616c616e63650000000000000000000000000000000000000000000000000000602082015250565b7f4f776e61626c653a2063616c6c6572206973206e6f7420746865206f776e6572600082015250565b7f45524332303a206275726e2066726f6d20746865207a65726f2061646472657360008201527f7300000000000000000000000000000000000000000000000000000000000000602082015250565b7f45524332303a207472616e736665722066726f6d20746865207a65726f20616460008201527f6472657373000000000000000000000000000000000000000000000000000000602082015250565b7f45524332303a20617070726f76652066726f6d20746865207a65726f2061646460008201527f7265737300000000000000000000000000000000000000000000000000000000602082015250565b7f45524332303a2064656372656173656420616c6c6f77616e63652062656c6f7760008201527f207a65726f000000000000000000000000000000000000000000000000000000602082015250565b6125608161209d565b811461256b57600080fd5b50565b612577816120af565b811461258257600080fd5b50565b61258e816120db565b811461259957600080fd5b5056fea26469706673582212208ffbbaf9b1c81ec9f33086f2532f58f784fb299f1683b8c9c4df45235c03105464736f6c63430008040033a264697066735822122033ade4db5269d8a6351fbe0e77ae2ae936963330a443d241d7004203dddf118764736f6c63430008040033",
  "linkReferences": {},
  "deployedLinkReferences": {}
}