{
  "_format": "hh-sol-artifact-1",
  "contractName": "Game",
  "sourceName": "contracts/Arcade.sol",
  "abi": [
    {
      "inputs": [
        {
          "internalType": "address",
          "name": "arcade_",
          "type": "address"
        },
        {
          "internalType": "address",
          "name": "creator_",
          "type": "address"
        },
        {
          "internalType": "address",
          "name": "dt_",
          "type": "address"
        }
      ],
      "stateMutability": "nonpayable",
      "type": "constructor"
    },
    {
      "anonymous": false,
      "inputs": [
        {
          "indexed": true,
          "internalType": "address",
          "name": "previousOwner",
          "type": "address"
        },
        {
          "indexed": true,
          "internalType": "address",
          "name": "newOwner",
          "type": "address"
        }
      ],
      "name": "OwnershipTransferred",
      "type": "event"
    },
    {
      "anonymous": false,
      "inputs": [
        {
          "indexed": false,
          "internalType": "address",
          "name": "account",
          "type": "address"
        }
      ],
      "name": "Paused",
      "type": "event"
    },
    {
      "anonymous": false,
      "inputs": [
        {
          "indexed": true,
          "internalType": "bytes32",
          "name": "role",
          "type": "bytes32"
        },
        {
          "indexed": true,
          "internalType": "bytes32",
          "name": "previousAdminRole",
          "type": "bytes32"
        },
        {
          "indexed": true,
          "internalType": "bytes32",
          "name": "newAdminRole",
          "type": "bytes32"
        }
      ],
      "name": "RoleAdminChanged",
      "type": "event"
    },
    {
      "anonymous": false,
      "inputs": [
        {
          "indexed": true,
          "internalType": "bytes32",
          "name": "role",
          "type": "bytes32"
        },
        {
          "indexed": true,
          "internalType": "address",
          "name": "account",
          "type": "address"
        },
        {
          "indexed": true,
          "internalType": "address",
          "name": "sender",
          "type": "address"
        }
      ],
      "name": "RoleGranted",
      "type": "event"
    },
    {
      "anonymous": false,
      "inputs": [
        {
          "indexed": true,
          "internalType": "bytes32",
          "name": "role",
          "type": "bytes32"
        },
        {
          "indexed": true,
          "internalType": "address",
          "name": "account",
          "type": "address"
        },
        {
          "indexed": true,
          "internalType": "address",
          "name": "sender",
          "type": "address"
        }
      ],
      "name": "RoleRevoked",
      "type": "event"
    },
    {
      "anonymous": false,
      "inputs": [
        {
          "indexed": false,
          "internalType": "address",
          "name": "account",
          "type": "address"
        }
      ],
      "name": "Unpaused",
      "type": "event"
    },
    {
      "inputs": [],
      "name": "DEFAULT_ADMIN_ROLE",
      "outputs": [
        {
          "internalType": "bytes32",
          "name": "",
          "type": "bytes32"
        }
      ],
      "stateMutability": "view",
      "type": "function"
    },
    {
      "inputs": [],
      "name": "GAME_OPERATOR_ROLE",
      "outputs": [
        {
          "internalType": "bytes32",
          "name": "",
          "type": "bytes32"
        }
      ],
      "stateMutability": "view",
      "type": "function"
    },
    {
      "inputs": [
        {
          "internalType": "address",
          "name": "player_",
          "type": "address"
        },
        {
          "internalType": "uint256",
          "name": "amount_",
          "type": "uint256"
        }
      ],
      "name": "deposit",
      "outputs": [],
      "stateMutability": "nonpayable",
      "type": "function"
    },
    {
      "inputs": [
        {
          "internalType": "address",
          "name": "",
          "type": "address"
        }
      ],
      "name": "depositsOf",
      "outputs": [
        {
          "internalType": "uint256",
          "name": "",
          "type": "uint256"
        }
      ],
      "stateMutability": "view",
      "type": "function"
    },
    {
      "inputs": [],
      "name": "dt",
      "outputs": [
        {
          "internalType": "address",
          "name": "",
          "type": "address"
        }
      ],
      "stateMutability": "view",
      "type": "function"
    },
    {
      "inputs": [
        {
          "internalType": "bytes32",
          "name": "role",
          "type": "bytes32"
        }
      ],
      "name": "getRoleAdmin",
      "outputs": [
        {
          "internalType": "bytes32",
          "name": "",
          "type": "bytes32"
        }
      ],
      "stateMutability": "view",
      "type": "function"
    },
    {
      "inputs": [
        {
          "internalType": "bytes32",
          "name": "role",
          "type": "bytes32"
        },
        {
          "internalType": "address",
          "name": "account",
          "type": "address"
        }
      ],
      "name": "grantRole",
      "outputs": [],
      "stateMutability": "nonpayable",
      "type": "function"
    },
    {
      "inputs": [
        {
          "internalType": "bytes32",
          "name": "role",
          "type": "bytes32"
        },
        {
          "internalType": "address",
          "name": "account",
          "type": "address"
        }
      ],
      "name": "hasRole",
      "outputs": [
        {
          "internalType": "bool",
          "name": "",
          "type": "bool"
        }
      ],
      "stateMutability": "view",
      "type": "function"
    },
    {
      "inputs": [],
      "name": "minDeposit",
      "outputs": [
        {
          "internalType": "uint256",
          "name": "",
          "type": "uint256"
        }
      ],
      "stateMutability": "view",
      "type": "function"
    },
    {
      "inputs": [],
      "name": "owner",
      "outputs": [
        {
          "internalType": "address",
          "name": "",
          "type": "address"
        }
      ],
      "stateMutability": "view",
      "type": "function"
    },
    {
      "inputs": [],
      "name": "paused",
      "outputs": [
        {
          "internalType": "bool",
          "name": "",
          "type": "bool"
        }
      ],
      "stateMutability": "view",
      "type": "function"
    },
    {
      "inputs": [],
      "name": "renounceOwnership",
      "outputs": [],
      "stateMutability": "nonpayable",
      "type": "function"
    },
    {
      "inputs": [
        {
          "internalType": "bytes32",
          "name": "role",
          "type": "bytes32"
        },
        {
          "internalType": "address",
          "name": "account",
          "type": "address"
        }
      ],
      "name": "renounceRole",
      "outputs": [],
      "stateMutability": "nonpayable",
      "type": "function"
    },
    {
      "inputs": [
        {
          "internalType": "bytes32",
          "name": "role",
          "type": "bytes32"
        },
        {
          "internalType": "address",
          "name": "account",
          "type": "address"
        }
      ],
      "name": "revokeRole",
      "outputs": [],
      "stateMutability": "nonpayable",
      "type": "function"
    },
    {
      "inputs": [
        {
          "internalType": "uint256",
          "name": "amount_",
          "type": "uint256"
        }
      ],
      "name": "setMinDeposit",
      "outputs": [],
      "stateMutability": "nonpayable",
      "type": "function"
    },
    {
      "inputs": [
        {
          "internalType": "bytes4",
          "name": "interfaceId",
          "type": "bytes4"
        }
      ],
      "name": "supportsInterface",
      "outputs": [
        {
          "internalType": "bool",
          "name": "",
          "type": "bool"
        }
      ],
      "stateMutability": "view",
      "type": "function"
    },
    {
      "inputs": [],
      "name": "togglePause",
      "outputs": [],
      "stateMutability": "nonpayable",
      "type": "function"
    },
    {
      "inputs": [
        {
          "internalType": "address",
          "name": "newOwner",
          "type": "address"
        }
      ],
      "name": "transferOwnership",
      "outputs": [],
      "stateMutability": "nonpayable",
      "type": "function"
    },
    {
      "inputs": [
        {
          "internalType": "address",
          "name": "player_",
          "type": "address"
        },
        {
          "internalType": "uint256",
          "name": "amount_",
          "type": "uint256"
        },
        {
          "internalType": "address",
          "name": "currency_",
          "type": "address"
        }
      ],
      "name": "withdraw",
      "outputs": [],
      "stateMutability": "nonpayable",
      "type": "function"
    }
  ],
  "bytecode": "0x60a06040523480156200001157600080fd5b506040516200222e3803806200222e833981810160405281019062000037919062000446565b620000576200004b6200012260201b60201c565b6200012a60201b60201c565b60016002819055506000600360006101000a81548160ff0219169083151502179055506200008b836200012a60201b60201c565b620000a06000801b83620001ee60201b60201c565b620000d27f47bdabde1e750b84b979caae0fef544935c3c8ebe23eed8fca4b8f45e462b62983620001ee60201b60201c565b8073ffffffffffffffffffffffffffffffffffffffff1660808173ffffffffffffffffffffffffffffffffffffffff1660601b81525050620001196200020460201b60201c565b5050506200059b565b600033905090565b60008060009054906101000a900473ffffffffffffffffffffffffffffffffffffffff169050816000806101000a81548173ffffffffffffffffffffffffffffffffffffffff021916908373ffffffffffffffffffffffffffffffffffffffff1602179055508173ffffffffffffffffffffffffffffffffffffffff168173ffffffffffffffffffffffffffffffffffffffff167f8be0079c531659141344cd1fd0a4f28419497f9722a3daafe3b4186f6b6457e060405160405180910390a35050565b620002008282620002bc60201b60201c565b5050565b62000214620003ad60201b60201c565b1562000257576040517f08c379a00000000000000000000000000000000000000000000000000000000081526004016200024e90620004f1565b60405180910390fd5b6001600360006101000a81548160ff0219169083151502179055507f62e78cea01bee320cd4e420270b5ea74000d11b0c9f74754ebdbfc544b05a258620002a36200012260201b60201c565b604051620002b29190620004d4565b60405180910390a1565b620002ce8282620003c460201b60201c565b620003a957600180600084815260200190815260200160002060000160008373ffffffffffffffffffffffffffffffffffffffff1673ffffffffffffffffffffffffffffffffffffffff16815260200190815260200160002060006101000a81548160ff0219169083151502179055506200034e6200012260201b60201c565b73ffffffffffffffffffffffffffffffffffffffff168173ffffffffffffffffffffffffffffffffffffffff16837f2f8788117e7eff1d82e926ec794901d17c78024a50270940304540a733656f0d60405160405180910390a45b5050565b6000600360009054906101000a900460ff16905090565b60006001600084815260200190815260200160002060000160008373ffffffffffffffffffffffffffffffffffffffff1673ffffffffffffffffffffffffffffffffffffffff16815260200190815260200160002060009054906101000a900460ff16905092915050565b600081519050620004408162000581565b92915050565b6000806000606084860312156200045c57600080fd5b60006200046c868287016200042f565b93505060206200047f868287016200042f565b925050604062000492868287016200042f565b9150509250925092565b620004a78162000524565b82525050565b6000620004bc60108362000513565b9150620004c98262000558565b602082019050919050565b6000602082019050620004eb60008301846200049c565b92915050565b600060208201905081810360008301526200050c81620004ad565b9050919050565b600082825260208201905092915050565b6000620005318262000538565b9050919050565b600073ffffffffffffffffffffffffffffffffffffffff82169050919050565b7f5061757361626c653a2070617573656400000000000000000000000000000000600082015250565b6200058c8162000524565b81146200059857600080fd5b50565b60805160601c611c74620005ba60003960006104ba0152611c746000f3fe608060405234801561001057600080fd5b50600436106101215760003560e01c80636bfbc13a116100ad578063a217fddf11610071578063a217fddf146102e2578063c4ae316814610300578063d547741f1461030a578063e3a9db1a14610326578063f2fde38b1461035657610121565b80636bfbc13a14610250578063715018a61461026e5780638da5cb5b146102785780638fcc9cfb1461029657806391d14854146102b257610121565b80633fdb8cbd116100f45780633fdb8cbd146101be57806341b3d185146101dc57806347e7ef24146101fa5780635c975abb1461021657806369328dec1461023457610121565b806301ffc9a714610126578063248a9ca3146101565780632f2ff15d1461018657806336568abe146101a2575b600080fd5b610140600480360381019061013b9190611418565b610372565b60405161014d91906116c9565b60405180910390f35b610170600480360381019061016b91906113b3565b6103ec565b60405161017d91906116e4565b60405180910390f35b6101a0600480360381019061019b91906113dc565b61040c565b005b6101bc60048036038101906101b791906113dc565b610435565b005b6101c66104b8565b6040516101d39190611685565b60405180910390f35b6101e46104dc565b6040516101f19190611801565b60405180910390f35b610214600480360381019061020f91906112ff565b6104e2565b005b61021e610654565b60405161022b91906116c9565b60405180910390f35b61024e6004803603810190610249919061133b565b61066b565b005b610258610785565b60405161026591906116e4565b60405180910390f35b6102766107a9565b005b610280610831565b60405161028d9190611685565b60405180910390f35b6102b060048036038101906102ab9190611441565b61085a565b005b6102cc60048036038101906102c791906113dc565b610897565b6040516102d991906116c9565b60405180910390f35b6102ea610902565b6040516102f791906116e4565b60405180910390f35b610308610909565b005b610324600480360381019061031f91906113dc565b610960565b005b610340600480360381019061033b91906112d6565b610989565b60405161034d9190611801565b60405180910390f35b610370600480360381019061036b91906112d6565b6109a1565b005b60007f7965db0b000000000000000000000000000000000000000000000000000000007bffffffffffffffffffffffffffffffffffffffffffffffffffffffff1916827bffffffffffffffffffffffffffffffffffffffffffffffffffffffff191614806103e557506103e482610a99565b5b9050919050565b600060016000838152602001908152602001600020600101549050919050565b610415826103ec565b61042681610421610b03565b610b0b565b6104308383610ba8565b505050565b61043d610b03565b73ffffffffffffffffffffffffffffffffffffffff168173ffffffffffffffffffffffffffffffffffffffff16146104aa576040517f08c379a00000000000000000000000000000000000000000000000000000000081526004016104a1906117e1565b60405180910390fd5b6104b48282610c88565b5050565b7f000000000000000000000000000000000000000000000000000000000000000081565b60045481565b6104ea610b03565b73ffffffffffffffffffffffffffffffffffffffff16610508610831565b73ffffffffffffffffffffffffffffffffffffffff161461055e576040517f08c379a0000000000000000000000000000000000000000000000000000000008152600401610555906117a1565b60405180910390fd5b6002805414156105a3576040517f08c379a000000000000000000000000000000000000000000000000000000000815260040161059a906117c1565b60405180910390fd5b600280819055506105b2610654565b156105f2576040517f08c379a00000000000000000000000000000000000000000000000000000000081526004016105e990611781565b60405180910390fd5b80600560008473ffffffffffffffffffffffffffffffffffffffff1673ffffffffffffffffffffffffffffffffffffffff16815260200190815260200160002060008282546106419190611843565b9250508190555060016002819055505050565b6000600360009054906101000a900460ff16905090565b7f47bdabde1e750b84b979caae0fef544935c3c8ebe23eed8fca4b8f45e462b62961069d81610698610b03565b610b0b565b6002805414156106e2576040517f08c379a00000000000000000000000000000000000000000000000000000000081526004016106d9906117c1565b60405180910390fd5b600280819055508173ffffffffffffffffffffffffffffffffffffffff1663a9059cbb85856040518363ffffffff1660e01b81526004016107249291906116a0565b602060405180830381600087803b15801561073e57600080fd5b505af1158015610752573d6000803e3d6000fd5b505050506040513d601f19601f82011682018060405250810190610776919061138a565b50600160028190555050505050565b7f47bdabde1e750b84b979caae0fef544935c3c8ebe23eed8fca4b8f45e462b62981565b6107b1610b03565b73ffffffffffffffffffffffffffffffffffffffff166107cf610831565b73ffffffffffffffffffffffffffffffffffffffff1614610825576040517f08c379a000000000000000000000000000000000000000000000000000000000815260040161081c906117a1565b60405180910390fd5b61082f6000610d6a565b565b60008060009054906101000a900473ffffffffffffffffffffffffffffffffffffffff16905090565b7f47bdabde1e750b84b979caae0fef544935c3c8ebe23eed8fca4b8f45e462b62961088c81610887610b03565b610b0b565b816004819055505050565b60006001600084815260200190815260200160002060000160008373ffffffffffffffffffffffffffffffffffffffff1673ffffffffffffffffffffffffffffffffffffffff16815260200190815260200160002060009054906101000a900460ff16905092915050565b6000801b81565b7f47bdabde1e750b84b979caae0fef544935c3c8ebe23eed8fca4b8f45e462b62961093b81610936610b03565b610b0b565b610943610654565b6109545761094f610e2e565b61095d565b61095c610ed1565b5b50565b610969826103ec565b61097a81610975610b03565b610b0b565b6109848383610c88565b505050565b60056020528060005260406000206000915090505481565b6109a9610b03565b73ffffffffffffffffffffffffffffffffffffffff166109c7610831565b73ffffffffffffffffffffffffffffffffffffffff1614610a1d576040517f08c379a0000000000000000000000000000000000000000000000000000000008152600401610a14906117a1565b60405180910390fd5b600073ffffffffffffffffffffffffffffffffffffffff168173ffffffffffffffffffffffffffffffffffffffff161415610a8d576040517f08c379a0000000000000000000000000000000000000000000000000000000008152600401610a8490611761565b60405180910390fd5b610a9681610d6a565b50565b60007f01ffc9a7000000000000000000000000000000000000000000000000000000007bffffffffffffffffffffffffffffffffffffffffffffffffffffffff1916827bffffffffffffffffffffffffffffffffffffffffffffffffffffffff1916149050919050565b600033905090565b610b158282610897565b610ba457610b3a8173ffffffffffffffffffffffffffffffffffffffff166014610f73565b610b488360001c6020610f73565b604051602001610b5992919061164b565b6040516020818303038152906040526040517f08c379a0000000000000000000000000000000000000000000000000000000008152600401610b9b91906116ff565b60405180910390fd5b5050565b610bb28282610897565b610c8457600180600084815260200190815260200160002060000160008373ffffffffffffffffffffffffffffffffffffffff1673ffffffffffffffffffffffffffffffffffffffff16815260200190815260200160002060006101000a81548160ff021916908315150217905550610c29610b03565b73ffffffffffffffffffffffffffffffffffffffff168173ffffffffffffffffffffffffffffffffffffffff16837f2f8788117e7eff1d82e926ec794901d17c78024a50270940304540a733656f0d60405160405180910390a45b5050565b610c928282610897565b15610d665760006001600084815260200190815260200160002060000160008373ffffffffffffffffffffffffffffffffffffffff1673ffffffffffffffffffffffffffffffffffffffff16815260200190815260200160002060006101000a81548160ff021916908315150217905550610d0b610b03565b73ffffffffffffffffffffffffffffffffffffffff168173ffffffffffffffffffffffffffffffffffffffff16837ff6391f5c32d9c69d2a47ea670b442974b53935d1edc7fd64eb21e047a839171b60405160405180910390a45b5050565b60008060009054906101000a900473ffffffffffffffffffffffffffffffffffffffff169050816000806101000a81548173ffffffffffffffffffffffffffffffffffffffff021916908373ffffffffffffffffffffffffffffffffffffffff1602179055508173ffffffffffffffffffffffffffffffffffffffff168173ffffffffffffffffffffffffffffffffffffffff167f8be0079c531659141344cd1fd0a4f28419497f9722a3daafe3b4186f6b6457e060405160405180910390a35050565b610e36610654565b15610e76576040517f08c379a0000000000000000000000000000000000000000000000000000000008152600401610e6d90611781565b60405180910390fd5b6001600360006101000a81548160ff0219169083151502179055507f62e78cea01bee320cd4e420270b5ea74000d11b0c9f74754ebdbfc544b05a258610eba610b03565b604051610ec79190611685565b60405180910390a1565b610ed9610654565b610f18576040517f08c379a0000000000000000000000000000000000000000000000000000000008152600401610f0f90611741565b60405180910390fd5b6000600360006101000a81548160ff0219169083151502179055507f5db9ee0a495bf2e6ff9c91a7834c1ba4fdd244a5e8aa4e537bd38aeae4b073aa610f5c610b03565b604051610f699190611685565b60405180910390a1565b606060006002836002610f869190611899565b610f909190611843565b67ffffffffffffffff811115610fcf577f4e487b7100000000000000000000000000000000000000000000000000000000600052604160045260246000fd5b6040519080825280601f01601f1916602001820160405280156110015781602001600182028036833780820191505090505b5090507f30000000000000000000000000000000000000000000000000000000000000008160008151811061105f577f4e487b7100000000000000000000000000000000000000000000000000000000600052603260045260246000fd5b60200101907effffffffffffffffffffffffffffffffffffffffffffffffffffffffffffff1916908160001a9053507f7800000000000000000000000000000000000000000000000000000000000000816001815181106110e9577f4e487b7100000000000000000000000000000000000000000000000000000000600052603260045260246000fd5b60200101907effffffffffffffffffffffffffffffffffffffffffffffffffffffffffffff1916908160001a905350600060018460026111299190611899565b6111339190611843565b90505b600181111561121f577f3031323334353637383961626364656600000000000000000000000000000000600f86166010811061119b577f4e487b7100000000000000000000000000000000000000000000000000000000600052603260045260246000fd5b1a60f81b8282815181106111d8577f4e487b7100000000000000000000000000000000000000000000000000000000600052603260045260246000fd5b60200101907effffffffffffffffffffffffffffffffffffffffffffffffffffffffffffff1916908160001a905350600485901c945080611218906119a4565b9050611136565b5060008414611263576040517f08c379a000000000000000000000000000000000000000000000000000000000815260040161125a90611721565b60405180910390fd5b8091505092915050565b60008135905061127c81611bcb565b92915050565b60008151905061129181611be2565b92915050565b6000813590506112a681611bf9565b92915050565b6000813590506112bb81611c10565b92915050565b6000813590506112d081611c27565b92915050565b6000602082840312156112e857600080fd5b60006112f68482850161126d565b91505092915050565b6000806040838503121561131257600080fd5b60006113208582860161126d565b9250506020611331858286016112c1565b9150509250929050565b60008060006060848603121561135057600080fd5b600061135e8682870161126d565b935050602061136f868287016112c1565b92505060406113808682870161126d565b9150509250925092565b60006020828403121561139c57600080fd5b60006113aa84828501611282565b91505092915050565b6000602082840312156113c557600080fd5b60006113d384828501611297565b91505092915050565b600080604083850312156113ef57600080fd5b60006113fd85828601611297565b925050602061140e8582860161126d565b9150509250929050565b60006020828403121561142a57600080fd5b6000611438848285016112ac565b91505092915050565b60006020828403121561145357600080fd5b6000611461848285016112c1565b91505092915050565b611473816118f3565b82525050565b61148281611905565b82525050565b61149181611911565b82525050565b60006114a28261181c565b6114ac8185611827565b93506114bc818560208601611971565b6114c5816119fd565b840191505092915050565b60006114db8261181c565b6114e58185611838565b93506114f5818560208601611971565b80840191505092915050565b600061150e602083611827565b915061151982611a0e565b602082019050919050565b6000611531601483611827565b915061153c82611a37565b602082019050919050565b6000611554602683611827565b915061155f82611a60565b604082019050919050565b6000611577601083611827565b915061158282611aaf565b602082019050919050565b600061159a602083611827565b91506115a582611ad8565b602082019050919050565b60006115bd601783611838565b91506115c882611b01565b601782019050919050565b60006115e0601f83611827565b91506115eb82611b2a565b602082019050919050565b6000611603601183611838565b915061160e82611b53565b601182019050919050565b6000611626602f83611827565b915061163182611b7c565b604082019050919050565b61164581611967565b82525050565b6000611656826115b0565b915061166282856114d0565b915061166d826115f6565b915061167982846114d0565b91508190509392505050565b600060208201905061169a600083018461146a565b92915050565b60006040820190506116b5600083018561146a565b6116c2602083018461163c565b9392505050565b60006020820190506116de6000830184611479565b92915050565b60006020820190506116f96000830184611488565b92915050565b600060208201905081810360008301526117198184611497565b905092915050565b6000602082019050818103600083015261173a81611501565b9050919050565b6000602082019050818103600083015261175a81611524565b9050919050565b6000602082019050818103600083015261177a81611547565b9050919050565b6000602082019050818103600083015261179a8161156a565b9050919050565b600060208201905081810360008301526117ba8161158d565b9050919050565b600060208201905081810360008301526117da816115d3565b9050919050565b600060208201905081810360008301526117fa81611619565b9050919050565b6000602082019050611816600083018461163c565b92915050565b600081519050919050565b600082825260208201905092915050565b600081905092915050565b600061184e82611967565b915061185983611967565b9250827fffffffffffffffffffffffffffffffffffffffffffffffffffffffffffffffff0382111561188e5761188d6119ce565b5b828201905092915050565b60006118a482611967565b91506118af83611967565b9250817fffffffffffffffffffffffffffffffffffffffffffffffffffffffffffffffff04831182151516156118e8576118e76119ce565b5b828202905092915050565b60006118fe82611947565b9050919050565b60008115159050919050565b6000819050919050565b60007fffffffff0000000000000000000000000000000000000000000000000000000082169050919050565b600073ffffffffffffffffffffffffffffffffffffffff82169050919050565b6000819050919050565b60005b8381101561198f578082015181840152602081019050611974565b8381111561199e576000848401525b50505050565b60006119af82611967565b915060008214156119c3576119c26119ce565b5b600182039050919050565b7f4e487b7100000000000000000000000000000000000000000000000000000000600052601160045260246000fd5b6000601f19601f8301169050919050565b7f537472696e67733a20686578206c656e67746820696e73756666696369656e74600082015250565b7f5061757361626c653a206e6f7420706175736564000000000000000000000000600082015250565b7f4f776e61626c653a206e6577206f776e657220697320746865207a65726f206160008201527f6464726573730000000000000000000000000000000000000000000000000000602082015250565b7f5061757361626c653a2070617573656400000000000000000000000000000000600082015250565b7f4f776e61626c653a2063616c6c6572206973206e6f7420746865206f776e6572600082015250565b7f416363657373436f6e74726f6c3a206163636f756e7420000000000000000000600082015250565b7f5265656e7472616e637947756172643a207265656e7472616e742063616c6c00600082015250565b7f206973206d697373696e6720726f6c6520000000000000000000000000000000600082015250565b7f416363657373436f6e74726f6c3a2063616e206f6e6c792072656e6f756e636560008201527f20726f6c657320666f722073656c660000000000000000000000000000000000602082015250565b611bd4816118f3565b8114611bdf57600080fd5b50565b611beb81611905565b8114611bf657600080fd5b50565b611c0281611911565b8114611c0d57600080fd5b50565b611c198161191b565b8114611c2457600080fd5b50565b611c3081611967565b8114611c3b57600080fd5b5056fea2646970667358221220965a95b351ef7c84ca2dfe47f75bb00709b91182f54118e4bc91af885d43352164736f6c63430008040033",
  "linkReferences": {},
  "deployedLinkReferences": {}
}